{
  "contractName": "VoterPanel",
  "abi": [
    {
      "inputs": [
        {
          "internalType": "address",
          "name": "_adminPanelAddress",
          "type": "address"
        }
      ],
      "stateMutability": "nonpayable",
      "type": "constructor"
    },
    {
      "anonymous": false,
      "inputs": [
        {
          "indexed": false,
          "internalType": "address",
          "name": "voter",
          "type": "address"
        },
        {
          "indexed": false,
          "internalType": "uint256",
          "name": "candidateID",
          "type": "uint256"
        }
      ],
      "name": "VoteCast",
      "type": "event"
    },
    {
      "inputs": [],
      "name": "adminPanel",
      "outputs": [
        {
          "internalType": "contract AdminPanel",
          "name": "",
          "type": "address"
        }
      ],
      "stateMutability": "view",
      "type": "function",
      "constant": true
    },
    {
      "inputs": [
        {
          "internalType": "address",
          "name": "",
          "type": "address"
        }
      ],
      "name": "hasVoted",
      "outputs": [
        {
          "internalType": "bool",
          "name": "",
          "type": "bool"
        }
      ],
      "stateMutability": "view",
      "type": "function",
      "constant": true
    },
    {
      "inputs": [
        {
          "internalType": "uint256",
          "name": "candidateID",
          "type": "uint256"
        }
      ],
      "name": "castVote",
      "outputs": [],
      "stateMutability": "nonpayable",
      "type": "function"
    },
    {
      "inputs": [
        {
          "internalType": "address",
          "name": "voter",
          "type": "address"
        }
      ],
      "name": "checkIfVoted",
      "outputs": [
        {
          "internalType": "bool",
          "name": "",
          "type": "bool"
        }
      ],
      "stateMutability": "view",
      "type": "function",
      "constant": true
    }
  ],
  "bytecode": "0x608060405234801561001057600080fd5b5060405161083b38038061083b8339818101604052810190610032919061008d565b806000806101000a81548173ffffffffffffffffffffffffffffffffffffffff021916908373ffffffffffffffffffffffffffffffffffffffff160217905550506100ff565b600081519050610087816100e8565b92915050565b60006020828403121561009f57600080fd5b60006100ad84828501610078565b91505092915050565b60006100c1826100c8565b9050919050565b600073ffffffffffffffffffffffffffffffffffffffff82169050919050565b6100f1816100b6565b81146100fc57600080fd5b50565b61072d8061010e6000396000f3fe608060405234801561001057600080fd5b506004361061004c5760003560e01c806309eef43e146100515780631dfeef7a146100815780633eb76b9c146100b157806383ab4233146100cd575b600080fd5b61006b6004803603810190610066919061045b565b6100eb565b60405161007891906105bb565b60405180910390f35b61009b6004803603810190610096919061045b565b61010b565b6040516100a891906105bb565b60405180910390f35b6100cb60048036038101906100c69190610484565b610161565b005b6100d56103f8565b6040516100e291906105d6565b60405180910390f35b60016020528060005260406000206000915054906101000a900460ff1681565b6000600160008373ffffffffffffffffffffffffffffffffffffffff1673ffffffffffffffffffffffffffffffffffffffff16815260200190815260200160002060009054906101000a900460ff169050919050565b600160003373ffffffffffffffffffffffffffffffffffffffff1673ffffffffffffffffffffffffffffffffffffffff16815260200190815260200160002060009054906101000a900460ff16156101ee576040517f08c379a00000000000000000000000000000000000000000000000000000000081526004016101e5906105f1565b60405180910390fd5b60008111801561029b575060008054906101000a900473ffffffffffffffffffffffffffffffffffffffff1673ffffffffffffffffffffffffffffffffffffffff1663a9a981a36040518163ffffffff1660e01b815260040160206040518083038186803b15801561025f57600080fd5b505afa158015610273573d6000803e3d6000fd5b505050506040513d601f19601f8201168201806040525081019061029791906104ad565b8111155b6102da576040517f08c379a00000000000000000000000000000000000000000000000000000000081526004016102d190610611565b60405180910390fd5b60018060003373ffffffffffffffffffffffffffffffffffffffff1673ffffffffffffffffffffffffffffffffffffffff16815260200190815260200160002060006101000a81548160ff02191690831515021790555060008054906101000a900473ffffffffffffffffffffffffffffffffffffffff1673ffffffffffffffffffffffffffffffffffffffff1663f3b9e61c826040518263ffffffff1660e01b815260040161038a9190610631565b600060405180830381600087803b1580156103a457600080fd5b505af11580156103b8573d6000803e3d6000fd5b505050507fa36cc2bebb74db33e9f88110a07ef56e1b31b24b4c4f51b54b1664266e29f45b33826040516103ed929190610592565b60405180910390a150565b60008054906101000a900473ffffffffffffffffffffffffffffffffffffffff1681565b60008135905061042b816106c9565b92915050565b600081359050610440816106e0565b92915050565b600081519050610455816106e0565b92915050565b60006020828403121561046d57600080fd5b600061047b8482850161041c565b91505092915050565b60006020828403121561049657600080fd5b60006104a484828501610431565b91505092915050565b6000602082840312156104bf57600080fd5b60006104cd84828501610446565b91505092915050565b6104df8161065d565b82525050565b6104ee8161066f565b82525050565b6104fd816106a5565b82525050565b600061051060178361064c565b91507f596f75206861766520616c726561647920766f7465642e0000000000000000006000830152602082019050919050565b600061055060148361064c565b91507f496e76616c69642063616e6469646174652049440000000000000000000000006000830152602082019050919050565b61058c8161069b565b82525050565b60006040820190506105a760008301856104d6565b6105b46020830184610583565b9392505050565b60006020820190506105d060008301846104e5565b92915050565b60006020820190506105eb60008301846104f4565b92915050565b6000602082019050818103600083015261060a81610503565b9050919050565b6000602082019050818103600083015261062a81610543565b9050919050565b60006020820190506106466000830184610583565b92915050565b600082825260208201905092915050565b60006106688261067b565b9050919050565b60008115159050919050565b600073ffffffffffffffffffffffffffffffffffffffff82169050919050565b6000819050919050565b60006106b0826106b7565b9050919050565b60006106c28261067b565b9050919050565b6106d28161065d565b81146106dd57600080fd5b50565b6106e98161069b565b81146106f457600080fd5b5056fea2646970667358221220d9cdccd3498344c3294225b367024fbfb704d38cdc8f25d0118a11676fc9930064736f6c63430008000033",
  "immutableReferences": {},
  "source": "// SPDX-License-Identifier: MIT\npragma solidity ^0.8.0;\n\nimport \"./AdminPanel.sol\"; // Import the AdminPanel contract\n\ncontract VoterPanel {\n    // Reference to the AdminPanel contract\n    AdminPanel public adminPanel;\n\n    // Mapping to track if an address has voted\n    mapping(address => bool) public hasVoted;\n\n    // Modifier to ensure only eligible voters can vote\n    modifier eligibleToVote() {\n        require(!hasVoted[msg.sender], \"You have already voted.\");\n        _;\n    }\n\n    // Event to log voting activity\n    event VoteCast(address voter, uint256 candidateID);\n\n    // Constructor to initialize with the address of the AdminPanel contract\n    constructor(address _adminPanelAddress) {\n        adminPanel = AdminPanel(_adminPanelAddress);\n    }\n\n    // Function to cast a vote for a candidate\n    function castVote(uint256 candidateID) public eligibleToVote {\n        // Verify the candidate exists\n        require(candidateID > 0 && candidateID <= adminPanel.candidateCount(), \"Invalid candidate ID\");\n\n        // Mark the voter as having voted\n        hasVoted[msg.sender] = true;\n\n        // Increment the candidate's vote count in the AdminPanel contract\n        adminPanel.incrementVoteCount(candidateID);\n\n        // Emit the voting event\n        emit VoteCast(msg.sender, candidateID);\n    }\n\n    // Function to check if a voter has already voted\n    function checkIfVoted(address voter) public view returns (bool) {\n        return hasVoted[voter];\n    }\n}\n",
  "sourcePath": "/Users/manojshrestha/BlockchainVoting/Ethereum/contracts/VoterPanel.sol",
  "compiler": {
    "name": "solc",
    "version": "0.8.0+commit.c7dfd78e.Emscripten.clang"
  },
  "schemaVersion": "3.4.16",
  "updatedAt": "2025-01-20T15:59:36.824Z",
  "networkType": "ethereum",
  "devdoc": {
    "kind": "dev",
    "methods": {},
    "version": 1
  },
  "userdoc": {
    "kind": "user",
    "methods": {},
    "version": 1
  }
}